:10672C00EFD3940540037F01221239C4FED39403A6
:10673C0040037F0222EF7041EE700B900001123982
:10674C00DDF4529352941239C4B4010B900001122F
:10675C0039DD4293F452941239C4FEB4020A90000B
:10676C00011239DD42934294EEB4030D90000112F4
:10677C0039DDFEF45293EE4294EF6401704312390A
:10678C00C4FE700B9000011239DDF452915292EE5E
:10679C00B4010B9000011239DD4291F4529212397E
:1067AC00C4B4020A9000011239DD429142921239AE
:1067BC00C4B4030D9000011239DDFEF45291EE4287
:1067CC0092EF640270431239C4FE700B90000112F8
:1067DC0039DDF452955296EEB4010B90000112394A
:1067EC00DD4295F452961239C4B4020A900001129B
:1067FC0039DD429542961239C4B4030D9000011252
:10680C0039DDFEF45295EE4296EF64037043123973
:10681C00C4FE700B9000011239DDF452B152B2EE8D
:10682C00B4010B9000011239DD42B1F452B21239AD
:10683C00C4B4020A9000011239DD42B142B21239DD
:10684C00C4B4030D9000011239DDFEF452B1EE42D6
:10685C00B2EF640470431239C4FE700B9000011245
:10686C0039DDF452B352B4EEB4010B90000112397D
:10687C00DD42B3F452B41239C4B4020A90000112CE
:10688C0039DD42B342B41239C4B4030D9000011285
:10689C0039DDFEF452B3EE42B4EF640570431239A5
:1068AC00C4FF700B9000011239DDF452C952CAEFCB
:1068BC00B4010B9000011239DD42C9F452CA1239ED
:1068CC00C4B4020A9000011239DD42C942CA12391D
:1068DC00C4B4030D9000011239DDFFF452C9EF422C
:0468EC00CA7F00223D
:0D854E00E4F5C7F5C5F5C675C380F5C42278
:10842B0075C78275C5018FC48EC375C65A75C6A52F
:06843B0000AFC212854EE5
:018441002218
:1084590075C78275C5028FC48EC38DC275C65A751C
:06846900C6A50002854ECD
:1084C50075C78275C5038FC48EC375C65A75C6A593
:0484D5000002854ECE
:08481A008F448B458A46894753
:10482200E4F548E54464016003024985EF75F00D43
:10483200A424F3F582E434FFF5837401F0A3740039
:10484200F0A37434F0EF75F00DA424F6F582E4348D
:10485200FFF5837401F0A37400F0A374B3F0EF7555
:10486200F00DA424F3F582E434FFF583E0FBA3E02A
:10487200FAA3E0F9EF75F00DA424F9F582E434FF10
:10488200F583EBF0A3EAF0A3E9F0EF75F00DA424B1
:10489200F3F582E434FFF583E0FBA3E0FAA3E0F949
:1048A200EF75F00DA424FCF582E434FFF583EBF000
:1048B200A3EAF0A3E9F0EF75F00DA424FFF582E47A
:1048C20034FFF583E4F0FE7F80FD7B017A007934CA
:1048D200123E5EAB45AA46A9479000011239DD643B
:1048E20001703053877F759850438E40538EFE532C
:1048F200890F438920900002123C5D7F007E467D35
:10490200057C00123BAAEFF404F58BF58DC2ABD205
:104912008E8060AB45AA46A9479000011239DD643A
:10492200027060759850438E01438E04900002120B
:104932003C5D7F007E307D2A7C00123BAAC374FF5F
:104942009FF5D7AB45AA46A947900002123C5D7F6E
:10495200007E307D2A7C00123BAAC374FF9FFF7445
:10496200FF9EFEE49DFDE49CFC7808123C4A8FD633
:10497200438E10AB45AA46A9479000081239DD24A0
:10498200FF92ACE54464026003024A9DE54475F07F
:104992000DA424F3F582E434FFF5837401F0A374CB
:1049A20000F0A374B4F0E54475F00DA424F6F5828A
:1049B200E434FFF5837401F0A37401F0A37433F0BF
:1049C200E54475F00DA424F3F582E434FFF583E0A9
:1049D200FBA3E0FAA3E0F9E54475F00DA424F9F590
:1049E20082E434FFF583EBF0A3EAF0A3E9F0E544B7
:1049F20075F00DA424F3F582E434FFF583E0FBA304
:104A0200E0FAA3E0F9E54475F00DA424FCF582E494
:104A120034FFF583EBF0A3EAF0A3E9F0E54475F087
:104A22000DA424FFF582E434FFF583E4F0FE7F80D9
:104A3200FD7B017A0079B4123E5E759A50438E0472
:104A4200AB45AA46A947900002123C5D7F007E302A
:104A52007D2A7C00123BAAC374FF9FF5D7AB45AAFF
:104A620046A947900002123C5D7F007E307D2A7C81
:104A720000123BAAC374FF9FFF74FF9EFEE49DFDDC
:104A8200E49CFC7808123C4A8FD6438E10AB45AAB0
:104A920046A9479000081239DD42AFE5446403603D
:104AA20003024C2AE54475F00DA424F3F582E434A4
:104AB200FFF5837401F0A37401F0A37434F0E544AC
:104AC20075F00DA424F6F582E434FFF5837401F049
:104AD200A37403F0A37427F0E54475F00DA424F346
:104AE200F582E434FFF583E0FBA3E0FAA3E0F9E505
:104AF2004475F00DA424F9F582E434FFF583EBF05C
:104B0200A3EAF0A3E9F0E54475F00DA424F3F582DD
:104B1200E434FFF583E0FBA3E0FAA3E0F9E5447592
:104B2200F00DA424FCF582E434FFF583EBF0A3EA54
:104B3200F0A3E9F0E54475F00DA424FFF582E43416
:104B4200FFF583E4F07E017FF4FD7B017A01793485
:104B5200123E5EAB45AA46A9479000011239DD64B8
:104B620002705275AC1053ACBF438E049000021217
:104B72003C5D7F007E307D2A7C00123BAAC374FF1D
:104B82009FF5D7AB45AA46A947900002123C5D7F2C
:104B9200007E307D2A7C00123BAAC374FF9FFF7403
:104BA200FF9EFEE49DFDE49CFC7808123C4A8FD6F1
:104BB200438E108060AB45AA46A947900001123986
:104BC200DD6403706375AC1043AC4043D1029000C6
:104BD20002123C5D7F007E307D2A7C00123BAAC31C
:104BE20074FF9FF5D5AB45AA46A947900002123C37
:104BF2005D7F007E307D2A7C00123BAAC374FF9F3A
:104C0200FF74FF9EFEE49DFDE49CFC7808123C4A82
:104C12008FD443D108AB45AA46A947900008123960
:104C2200DD33333354F842AFE54464046003024D8C
:104C3200B4E54475F00DA424F3F582E434FFF58362
:104C42007401F0A37403F0A37428F0E54475F00D29
:104C5200A424F6F582E434FFF5837401F0A374030F
:104C6200F0A374A7F0E54475F00DA424F3F582E4F3
:104C720034FFF583E0FBA3E0FAA3E0F9E54475F025
:104C82000DA424F9F582E434FFF583EBF0A3EAF0F6
:104C9200A3E9F0E54475F00DA424F3F582E434FFB2
:104CA200F583E0FBA3E0FAA3E0F9E54475F00DA477
:104CB20024FCF582E434FFF583EBF0A3EAF0A3E9E8
:104CC200F0E54475F00DA424FFF582E434FFF5838A
:104CD200E4F0FE7F80FD7B017A037928123E5EAB11
:104CE20045AA46A9479000011239DD640270527547
:104CF20084105384BF438E04900002123C5D7F00F7
:104D02007E307D2A7C00123BAAC374FF9FF5D7AB8D
:104D120045AA46A947900002123C5D7F007E307D85
:104D22002A7C00123BAAC374FF9FFF74FF9EFEE41D
:104D32009DFDE49CFC7808123C4A8FD6438E10807D
:104D420060AB45AA46A9479000011239DD640470A0
:104D52006175841043844043D120900002123C5D6F
:104D62007F007E307D2A7C00123BAAC374FF9FF530
:104D7200D3AB45AA46A947900002123C5D7F007E54
:104D8200307D2A7C00123BAAC374FF9FFF74FF9EF2
:104D9200FEE49DFDE49CFC7808123C4A8FD243D18C
:104DA20080AB45AA46A9479000081239DDC454F0E9
:024DB20042AF0E
:014DB40022DC
:030023000275A1C2
:1075A100C0E0C0F0C083C082C0D075D000C000C0B0
:1075B10001C002C00320980302768BC29890000696
:1075C100E0FBA3E0FAA3E0F9C003C002C001900010
:1075D10009A3E0FAA3E0F9C3D082D083D0E0E99512
:1075E10082EA9583403690000CE0B4012F900000B0
:1075F100E0F9A3E0FAA3E0900009C9F0A3EAF0A33F
:10760100E9F0900000E0F9A3E0FAA3E0900006C9D8
:10761100F0A3EAF0A3E9F090000CE4F0900003E09D
:10762100FBA3E0FAA3E0F9C003C002C00190000986
:10763100E0FBA3E0FAA3E0F9D082D083D0E06B7045
:1076410008E965827003EA6583900009702AE0FB0E
:10765100A3E0FAA3E0F9E599123A5F900000E0F99E
:10766100A3E0FAA3E0900009C9F0A3EAF0A3E9F0CE
:1076710090000C7401F08012E0FBA3E475F001129C
:107681003AA9A9F0FAE599123A5FD003D002D001E4
:0D769100D000D0D0D082D083D0F0D0E03235
:0300430002708ABE
:10708A00C0E0C0F0C083C082C0D075D000C000C0CC
:10709A0001C002C003E59A20E00302717D539AFE03
:1070AA00900013E0FBA3E0FAA3E0F9C003C002C01A
:1070BA0001900016E0FBA3E0FAA3E0F9D082D083A6
:1070CA00D0E06B7008E965827003EA6583703690D8
:1070DA000019E0B4012F90000DE0F9A3E0FAA3E053
:1070EA00900016C9F0A3EAF0A3E9F090000DE0F9C8
:1070FA00A3E0FAA3E0900013C9F0A3EAF0A3E9F031
:10710A00900019E4F0900010E0FBA3E0FAA3E0F984
:10711A00C003C002C001900016E0FBA3E0FAA3E09E
:10712A00F9D082D083D0E06B7008E965827003EAF7
:10713A006583900016702AE0FBA3E0FAA3E0F9E564
:10714A009B123A5F90000DE0F9A3E0FAA3E09000E9
:10715A0016C9F0A3EAF0A3E9F09000197401F080CF
:10716A0012E0FBA3E475F001123AA9A9F0FAE59B33
:10717A00123A5FD003D002D001D000D0D0D082D052
:06718A0083D0F0D0E032DA
:03008B000271906F
:10719000C0E0C0F0C083C082C0D075D000C000C0C5
:1071A00001C002C003E5AC20E00302728353ACFED1
:1071B000900020E0FBA3E0FAA3E0F9C003C002C006
:1071C00001900023E0FBA3E0FAA3E0F9D082D08392
:1071D000D0E06B7008E965827003EA6583703690D1
:1071E0000026E0B4012F90001AE0F9A3E0FAA3E032
:1071F000900023C9F0A3EAF0A3E9F090001AE0F9A7
:10720000A3E0FAA3E0900020C9F0A3EAF0A3E9F01C
:10721000900026E4F090001DE0FBA3E0FAA3E0F963
:10722000C003C002C001900023E0FBA3E0FAA3E08A
:10723000F9D082D083D0E06B7008E965827003EAF0
:107240006583900023702AE0FBA3E0FAA3E0F9E550
:10725000AD123A5F90001AE0F9A3E0FAA3E09000C3
:1072600023C9F0A3EAF0A3E9F09000267401F080AE
:1072700012E0FBA3E475F001123AA9A9F0FAE5AD1A
:10728000123A5FD003D002D001D000D0D0D082D04B
:0672900083D0F0D0E032D3
:0300930002729660
:10729600C0E0C0F0C083C082C0D075D000C000C0BE
:1072A60001C002C003E58420E0030273895384FE13
:1072B60090002DE0FBA3E0FAA3E0F9C003C002C0F2
:1072C60001900030E0FBA3E0FAA3E0F9D082D0837E
:1072D600D0E06B7008E965827003EA6583703690CA
:1072E6000033E0B4012F900027E0F9A3E0FAA3E011
:1072F600900030C9F0A3EAF0A3E9F0900027E0F986
:10730600A3E0FAA3E090002DC9F0A3EAF0A3E9F008
:10731600900033E4F090002AE0FBA3E0FAA3E0F942
:10732600C003C002C001900030E0FBA3E0FAA3E076
:10733600F9D082D083D0E06B7008E965827003EAE9
:107346006583900030702AE0FBA3E0FAA3E0F9E53C
:1073560085123A5F900027E0F9A3E0FAA3E09000D7
:1073660030C9F0A3EAF0A3E9F09000337401F0808D
:1073760012E0FBA3E475F001123AA9A9F0FAE5853B
:10738600123A5FD003D002D001D000D0D0D082D044
:0673960083D0F0D0E032CC
:066BB6008B488A49894A60
:106BBC00EF75F00DA424FCF582E434FFF583E0FBC3
:106BCC00A3E0FAA3E08B4D8A4EF54FEF75F00DA4C0
:106BDC0024F9F582E434FFF583E0FBA3E0FAA3E0AB
:106BEC008B508A51F552E4900DA6F0A3F0A3E54822
:106BFC00F0A3E549F0A3E9F0E54D854E83854F827E
:106C0C006550700AE55265827004E5516583700326
:106C1C00026CDB900DA7E004F07006900DA6E0046A
:106C2C00F0C3900DA7E0954C900DA6E0954B40035A
:106C3C00026CDBEF75F00DA424F6F582E434FFF55D
:106C4C0083E0FBA3E0FAA3E0F9EB8A838982655029
:106C5C00700AE55265827004E5516583704AAB5049
:106C6C00AA51A9521239C4FEAB48054AE54AAA49B1
:106C7C007002054914F9EE123A5FEF75F00DA42479
:106C8C00F3F582E434FFF583E0FBA3E0FAA3E08B99
:106C9C00508A51F552EF75F00DA424FFF582E434BF
:106CAC00FFF583E4F0026C04AB500552E552AA5197
:106CBC007002055114F91239C4FEAB48054AE54A75
:106CCC00AA497002054914F9EE123A5F026C04EFFE
:106CDC0075F00DA424F9F582E434FFF583E54DF04D
:106CEC00A3E54EF0A3E54FF0900DA6E0FEA3E0FF68
:016CFC002275
:02739C008F2C34
:10739E00E52C24FE601114601314601524036003A1
:1073AE000274A0C2AC800D53AFFE800853AFF780BD
:1073BE000353AFEFE52C75F00DA424F3F582E434FE
:1073CE00FFF583A3E0FAA3E0AE02FFE52C75F00D06
:1073DE00A424F6F582E434FFF583A3E0FAA3E0C318
:1073EE009FFFEA9ECF2401CF3400FE7D00E52C7571
:1073FE00F00DA424F3F582E434FFF583E0FBA3E063
:10740E00FAA3E0F9123E5EE52C75F00DA424F3F517
:10741E0082E434FFF583E0FBA3E0FAA3E0F9E52C68
:10742E0075F00DA424FCF582E434FFF583EBF0A394
:10743E00EAF0A3E9F0E52C75F00DA424F3F582E44F
:10744E0034FFF583E0FBA3E0FAA3E0F9E52C75F039
:10745E000DA424F9F582E434FFF583EBF0A3EAF0F2
:10746E00A3E9F0E52C75F00DA424FFF582E434FFBA
:10747E00F583E4F0E52C24FE600D14600E14600F0D
:10748E002403700ED2AC2243AF012243AF08224335
:02749E00AF102D
:0174A00022C9
:108029001282787539007538C27537017536007F47
:1080390002125CCB7539007538C275370175360087
:108049007F01125CCBE4F539753896F537F5367F43
:1080590003125CCB7539007538C275370175360066
:108069007F04125CCB7539007538C27537017536D6
:0C807900007F01125CCB1285CDD2AF223B
:108278007523FFE4F522FB7A007922FF12672C7B35
:10828800007A0079227F0112672C7B007A0079221C
:108298007F0212672C7B007A0079227F0312672CF9
:0B82A8007B007A0079227F0402672C23
:0B85CD00438905E4F58CF58AD28C226E
:10769E00EF14B41F00400302778D9076B675F00399
:1076AE00A4C58325F0C5837302771302771702777B
:1076BE001B02771F02772302772702772B02772F81
:1076CE0002773302773702773B02773F0277430226
:1076DE00774702774B02774F02775302775702773D
:1076EE005B02775F02776302776702776B02776FD1
:1076FE0002777302777702777B02777F02778302B6
:10770E007787027787A2C58072A2A7806EA2828039
:10771E006AA2A68066A2838062A2A5805EA28480F1
:10772E005AA2A48056A2858052A2A3804EA2868021
:10773E004AA2A28046A2878042A2A1803EA2A08039
:10774E003AA2C48036A2928032A2C2802EA2938028
:10775E002AA2C18026A2948022A2B7801EA2958062
:10776E001AA2B68016A2B58012A2B4800EA2B38061
:10777E000AA2B28006A2CC8002A2CDE433FF227F01
:02778E000022D7
:107AC600E4900D7FF01239C4FF12769E900D80EF80
:107AD600F09000031239DDB4FF07900003E4123A78
:107AE600719000061239DD70359000011239DDFF04
:107AF600900D80E0B50705900005805C90000212AD
:107B060039DDFF9000051239DDC39F500A9000054C
:107B16007401123A2C804590000674018012900080
:107B2600011239DDFF900D80E06F6009900005E4D9
:107B3600123A7180199000031239DDFF9000051288
:107B460039DDC39F500F9000057401123A2CE49062
:107B56000D7FF0800D900006E4123A71900D7F744F
:077B660001F0900D7FE0FF2C
:017B6D0022F5
:086A67008B2C8A2D892E8D2F46
:106A6F007E00E9252FF9EE3AFA90FFFF1239DDFF8C
:106A7F00900D82F0E4A3F012769E900D84EFF0E477
:106A8F00A3F0AB2CAA2DA92E9000111239DDFFE532
:106A9F002F14FEEFA806088002C313D8FC540190F0
:106AAF000D85F0E52F2409FFE433FE8F82F5831265
:106ABF0039DD900010123A719000081239DDB4FFE1
:106ACF000DAB2CAA2DA92E900008E4123A71900D4F
:106ADF0085E0704CAB2CAA2DA92E9000061239DD43
:106AEF00FD900D84E0B50509900010E4123A718015
:106AFF001F9000071239DDFD9000101239DDC39D84
:106B0F005016AB2CAA2DA92E9000107401123A2CFE
:106B1F00900D837401F08055900D857401F0803CC9
:106B2F00AB2CAA2DA92E9000061239DDFD900D84F5
:106B3F00E06D6009900010E4123A71801F90000818
:106B4F001239DDFD9000101239DDC39D5015AB2CAD
:106B5F00AA2DA92E9000107401123A2CE4900D83E7
:106B6F00F0800AE4900D85F0900D8304F0AB2CAA11
:106B7F002DA92E9000101239DD8F828E83123A715B
:106B8F00E92411F9E43AFA1239C4FFE52F14FE9003
:106B9F000D85E0FDA806088002C333D8FC4F123ADA
:066BAF005F900D83E0FF82
:016BB50022BD
:0268F0008D2FEA
:1068F200E4900D82F0A3E530F0E4A3F0E52F75F00B
:1069020012A42439F582E4340DF583E0FEA3E0A855
:1069120031088005CEC313CE13D8F95401900D84EB
:10692200F0E52F75F012A42429F582E4340DF583E5
:10693200E5822531F582E43583F583E09000051286
:106942003A719000031239DDB4FF07900003E4129C
:106952003A71900D84E07039900D83E0B401099092
:106962000005E4123A7180199000021239DDFF909D
:1069720000051239DDC39F50109000057401123AD0
:106982002C900D827401F08043900D847401F0808C
:106992002A900D83E064016009900005E4123A71C7
:1069A20080199000031239DDFF9000051239DDC312
:1069B2009F500F9000057401123A2CE4900D82F062
:1069C200800AE4900D84F0900D8204F0900005128C
:1069D20039DDFFE52F75F012A42429F582E4340D88
:1069E200F583E5822531F582E43583F583EFF09076
:1069F2000D84E07032E52F75F012A42439F582E49B
:106A0200340DF583C083C082E0FCA3E0FD74017EF7
:106A120000A831088005C333CE33CED8F9F4FFEE97
:106A2200F45CFEED5F802EE52F75F012A42439F59B
:106A320082E4340DF583C083C082E0FCA3E0FD74E0
:106A4200017E00A831088005C333CE33CED8F9FFCA
:106A5200EC4EFEED4FFFD082D083EEF0A3EFF0902C
:046A62000D82E0FFC2
:016A6600220D
:107FB9004253505F476574557361727452784275C4
:107FC900666665723A496E646578206F7665726691
:107FD9006C6F772121212020555341525478203D3F
:107FE9002025623032640D0A0052786C656E74681F
:107FF9003A496E646578206F766572666C6F772191
:1080090021212020555341525478203D20256230AA
:1080190032640D0A002562303258000A000000005F
:0C85A9008F63AD637F01128407AF632273
:025CCB008F3513
:105CCD00E53564016003025D57EF75F00AA4241EEB
:105CDD00F582E43407F5837401F0A37403F0A37423
:105CED00A8F0EF75F00AA42421F582E43407F583BA
:105CFD007401F0A37404F0A37427F0EF75F00AA4F7
:105D0D00241EF582E43407F583E0FBA3E0FAA3E05B
:105D1D00F9EF75F00AA42424F582E43407F583EB3A
:105D2D00F0A3EAF0A3E9F0EF75F00AA42427F582B9
:105D3D00E43407F583E4F0FE7F80FD7B017A03797F
:105D4D00A8123E5E753B01025F01E53564026003FA
:105D5D00025DE6E53575F00AA4241EF582E43407EC
:105D6D00F5837401F0A37404F0A37428F0E5357580
:105D7D00F00AA42421F582E43407F5837401F0A31D
:105D8D007404F0A374A7F0E53575F00AA4241EF58C
:105D9D0082E43407F583E0FBA3E0FAA3E0F9E535EF
:105DAD0075F00AA42424F582E43407F583EBF0A3FF
:105DBD00EAF0A3E9F0E53575F00AA42427F582E4AD
:105DCD003407F583E4F0FE7F80FD7B017A047928AA
:105DDD00123E5E753B02025F01E53564036003020E
:105DED005E75E53575F00AA4241EF582E43407F5D9
:105DFD00837401F0A37404F0A374A8F0E53575F075
:105E0D000AA42421F582E43407F5837401F0A37408
:105E1D0006F0A374A7F0E53575F00AA4241EF582EB
:105E2D00E43407F583E0FBA3E0FAA3E0F9E535756B
:105E3D00F00AA42424F582E43407F583EBF0A3EAF9
:105E4D00F0A3E9F0E53575F00AA42427F582E434D2
:105E5D0007F583E4F07E02FFFD7B017A0479A81239
:105E6D003E5E753B03025F01E53564046003025F2E
:105E7D001BE53575F00AA4241EF582E43407F5837D
:105E8D007401F0A37406F0A374A8F0E53575F00A5B
:105E9D00A42421F582E43407F5837401F0A374077B
:105EAD00F0A37427F0E53575F00AA4241EF582E4FD
:105EBD003407F583E0FBA3E0FAA3E0F9E53575F0CF
:105ECD000AA42424F582E43407F583EBF0A3EAF069
:105EDD00A3E9F0E53575F00AA42427F582E434072B
:105EED00F583E4F0FE7F80FD7B017A0679A8123EF2
:105EFD005E753B0485393F85383E85373D85363C9B
:0E5F0D007542017B007A00793AAF3512481ACE
:015F1B002263
:085F1C008F418B428A43894446
:105F2400E4900DA0F0A3F0A3F0A3F0A3F0A3F0E598
:105F3400417003FEFF22E54175F00AA42424F58292
:105F4400E43407F583A3E0FAA3E0AE02FFE541756C
:105F5400F00AA42421F582E43407F583A3E0FAA32C
:105F6400E0C39FFFEA9EFEEF2401FFE43EFE900D96
:105F7400A0F0A3EFF0E54175F00AA42424F582E42F
:105F84003407F583E0FBA3E0FAA3E0F98E4B8F4CD2
:105F9400AF41126BB6900DA2EEF0A3EFF0E54175A0
:105FA400F00AA42424F582E43407F583E0FBA3E09B
:105FB400FAA3E02FF9EA3EFAE54175F00AA4242495
:105FC400F582E43407F583EBF0A3EAF0A3E9F0E506
:105FD4004175F00AA4241EF582E43407F583A3E096
:105FE400FAA3E0AE02FFE54175F00AA42424F58289
:105FF400E43407F583A3E0FAA3E0C39FFFEA9E908D
:106004000DA2F0A3EFF0E54175F00AA42421F58276
:10601400E43407F583E0FBA3E0FAA3E0F9C003C08E
:1060240002C001E54175F00AA42424F582E4340792
:10603400F583A3E0FAA3E0F9C3D082D083D0E0E9EA
:106044009582EA95834018AF41127C0F7BFF7A7FDB
:1060540079B985414A124E17E4900DA2F0A3F0C31A
:10606400900DA3E09546900DA2E095454072E5455C
:10607400F0A3E546F07BFF7A7F79F285414A124E20
:1060840017E4900DA4F0A3F0900DA4E0FEA3E0FFAC
:10609400C39546EE95455041E54175F00AA4241E8A
:1060A400F582E43407F583E0FBA3E0FAA3E0F98F7B
:1060B400828E831239DDFFAB420544E544AA437066
:1060C40002054314F9EF123A5F900DA5E004F07055
:1060D40006900DA4E004F080AFAF41127C0F805C09
:1060E400E4900DA4F0A3F0900DA2E0FEA3E0FFA3C2
:1060F400E0FCA3E0FDC39FEC9E5041E54175F00A2E
:10610400A4241EF582E43407F583E0FBA3E0FAA39C
:10611400E0F98D828C831239DDFFAB420544E544FE
:10612400AA437002054314F9EF123A5F900DA5E0FB
:1061340004F07006900DA4E004F080ABAB42AA43D7
:0E614400A944E4123A5F900DA2E0FEA3E0FF32
:01615200222A
:086363008F378B388A39893A23
:10636B00E4900D94F0A3F0F9A3C9F0A3F0A3E9F026
:10637B00A3E4F0A3F0A3F0F9A3C9F0A3F0A3E9F011
:10638B00E4A3F0E5377003FEFF22AB38AA39A93A34
:10639B00853B45853C46AF37125F1C900D94EEF064
:1063AB00FCA3EFF0FD853D46853E47853F4875498B
:1063BB000085404AAB38AA39A93A126CFD900D9C66
:1063CB00EBF0A3EAF0A3E9F0900D9CE0FBA3E0FA5D
:1063DB00A3E04A4B7018AE3BAF3CFDAB38AA39A9D2
:1063EB003A123E5EE4900D94F0A3F0FFFE22AB3D1B
:1063FB007E00E53F2540F9EE353EFA90FFFF12395E
:10640B00DDB40A1B900D9CE0FBA3E0FAA3E0240192
:10641B00F9E43AFA900D9CEBF0A3EAF0A3E9F090C3
:10642B000D9CE0FBA3E0FAA3E0F9C3953AFFEA95D4
:10643B0039FE900D94F0A3EFF0C3E53C9FFFE53BD5
:10644B009EFE7D00123E5EE53775F00AA4241EF514
:10645B0082E43407F583E0F9A3E0FAA3E0900D9909
:10646B00C9F0A3EAF0A3E9F0900D99E0FBA3E0FAE1
:10647B00A3E0F9900D94E0FEA3E0FFE92FF9EA3ECB
:10648B00FAA3EBF0A3EAF0A3E9F0E53775F00AA461
:10649B002424F582E43407F583E0FBA3E0FAA3E0C0
:1064AB00F9C003C002C001900D96A3E0FAA3E0F976
:1064BB00C3D082D083D0E0E99582EA9583502A90AD
:1064CB000D96E0FBA3E475F001123AA9A9F0FA12BC
:1064DB0039C4FF900D99E0FBA3E475F001123AA9C2
:1064EB00A9F0FAEF123A5F80A1E53775F00AA42400
:1064FB0021F582E43407F583A3E0FAA3E0AE02FFB3
:10650B00900D99E0FBA3E0FAA3E0F9FDC3EF9DFF2B
:10651B00EE9ACF2401CF3400FE7D00123E5E900D2B
:10652B0099E0FBA3E0FAA3E0F9E53775F00AA424A0
:10653B0024F582E43407F583EBF0A3EAF0A3E9F04A
:08654B00900D94E0FEA3E0FFB7
:016553002225
:027C0F008F479D
:107C1100E4900DA6F0A3F0E5477003027CAEE547C2
:107C210075F00AA4241EF582E43407F583A3E0FA73
:107C3100A3E0AE02FFE54775F00AA42421F582E432
:107C41003407F583A3E0FAA3E0C39FFFEA9ECF24A4
:107C510001CF3400900DA6F0A3EFF0900DA6E0FE49
:107C6100A3E0FF7D00E54775F00AA4241EF582E438
:107C71003407F583E0FBA3E0FAA3E0F9123E5EE5E9
:107C81004775F00AA4241EF582E43407F583E0FB6E
:107C9100A3E0FAA3E0F9E54775F00AA42424F582EC
:0D7CA100E43407F583EBF0A3EAF0A3E9F06B
:017CAE0022B3
:10823900BF01063099FDC29922BF0209E59A30E1D2
:10824900FB539AFD22BF0312E5AC30E1047E0180A5
:10825900027E00EE60F253ACFD22BF0411E58430CA
:0F826900E1047F0180027F00EF60F25384FD2269
:10840700EF6020EF24FE600E14600F146010240349
:10841700700E8D99800A8D9B80068DAD80028D85AB
:048427001282392262
:08838B008F358B368A378938E3
:10839300E4FCECC39539501AAB360538E538AA37F7
:1083A3007002053714F91239C4FDAF351284070C76
:0283B30080E068
:0183B50022A5
:067E43008B248A2589262C
:107E4900E4F52CF52D782E7C00FD7BFF7A807926D0
:107E5900FE7F0312399EE4F52CF52DC3E52D952BF4
:107E6900E52C952A5041754AFF754B80754C1EAB20
:107E7900240526E526AA257002052514F91239C418
:107E8900F54D7B007A00792E124E11753400753547
:107E99000075362EAB27AA28A92912813A052DE5A6
:107EA9002D70B8052C80B47534FF7535807536246E
:097EB900AB27AA28A92902813A8D
:101669008B2F8A3089317F207E0012842BAB2FAAE1
:1016790030A931EF123A5F7F217E0012842BAB2F04
:10168900AA30A931900001EF123A717F227E00122F
:10169900842BAB2FAA30A931900002EF123A717F47
:1016A900237E0012842BAB2FAA30A931900003EFBF
:1016B900123A717F247E0012842BAB2FAA30A931F4
:1016C900900004EF123A717F287E0012842BAB2F11
:1016D900AA30A931900007EF123A717F297E0012D2
:1016E900842BAB2FAA30A931900008EF123A717FF1
:1016F9002A7E0012842BAB2FAA30A931900009EF62
:10170900123A717F2B7E0012842BAB2FAA30A9319C
:1017190090000AEF123A717F2C7E0012842BAB2FB6
:10172900AA30A93190000BEF123A717F307E001276
:10173900842BAB2FAA30A93190000EEF123A717F9A
:10174900317E0012842BAB2FAA30A93190000FEF04
:10175900123A717F327E0012842BAB2FAA30A93145
:10176900900010EF123A717F337E0012842BAB2F59
:10177900AA30A931900011EF123A717F347E00121C
:10178900842BAB2FAA30A931900012EF123A717F46
:10179900387E0012842BAB2FAA30A931900015EFA7
:1017A900123A717F397E0012842BAB2FAA30A931EE
:1017B900900016EF123A717F3A7E0012842BAB2FFC
:1017C900AA30A931900017EF123A717F3B7E0012BF
:1017D900842BAB2FAA30A931900018EF123A717FF0
:1017E9003C7E0012842BAB2FAA30A931900019EF4F
:1017F900123A717F407E0012842BAB2FAA30A93197
:1018090090001CEF123A717F417E0012842BAB2F9E
:10181900AA30A93190001DEF123A717F427E001261
:10182900842BAB2FAA30A93190001EEF123A717F99
:10183900437E0012842BAB2FAA30A93190001FEFF1
:10184900123A717F447E0012842BAB2FAA30A93142
:10185900900020EF123A717F487E0012842BAB2F43
:10186900AA30A931900023EF123A717F497E001204
:10187900842BAB2FAA30A931900024EF123A717F43
:101889004A7E0012842BAB2FAA30A931900025EF94
:10189900123A717F4B7E0012842BAB2FAA30A931EB
:1018A900900026EF123A717F4C7E0012842BAB2FE9
:1018B900AA30A931900027EF123A717F507E0012A9
:1018C900842BAB2FAA30A93190002AEF123A717FED
:1018D900517E0012842BAB2FAA30A93190002BEF37
:1018E900123A717F527E0012842BAB2FAA30A93194
:1018F90090002CEF123A717F537E0012842BAB2F8C
:10190900AA30A93190002DEF123A717F547E00124E
:10191900842BAB2FAA30A93190002EEF123A717F98
:10192900587E0012842BAB2FAA30A931900031EFD9
:10193900123A717F597E0012842BAB2FAA30A9313C
:10194900900032EF123A717F5A7E0012842BAB2F2E
:10195900AA30A931900033EF123A717F5B7E0012F1
:10196900842BAB2FAA30A931900034EF123A717F42
:101979005C7E0012842BAB2FAA30A931900035EF81
:10198900123A717F607E0012842BAB2FAA30A931E5
:10199900900038EF123A717F617E0012842BAB2FD1
:1019A900AA30A931900039EF123A717F627E001294
:1019B900842BAB2FAA30A93190003AEF123A717FEC
:1019C900637E0012842BAB2FAA30A93190003BEF24
:1019D900123A717F647E0012842BAB2FAA30A93191
:1019E90090003CEF123A717F687E0012842BAB2F76
:1019F900AA30A93190003FEF123A717F697E001237
:101A0900842BAB2FAA30A931900040EF123A717F95
:101A19006A7E0012842BAB2FAA30A931900041EFC6
:101A2900123A717F6B7E0012842BAB2FAA30A93139
:101A3900900042EF123A717F6C7E0012842BAB2F1B
:101A4900AA30A931900043EF123A717F707E0012DB
:101A5900842BAB2FAA30A931900046EF123A717F3F
:101A6900717E0012842BAB2FAA30A931900047EF69
:101A7900123A717F727E0012842BAB2FAA30A931E2
:101A8900900048EF123A717F737E0012842BAB2FBE
:101A9900AA30A931900049EF123A717F747E001281
:101AA900842BAB2FAA30A93190004AEF123A717FEB
:101AB900807E0012842BAB2FAA30A93190004DEF04
:101AC900123A717F817E0012842BAB2FAA30A93183
:101AD90090004EEF123A717F827E0012842BAB2F59
:101AE900AA30A93190004FEF123A717F837E00121C
:101AF900842BAB2FAA30A931900050EF123A717F95
:101B0900847E0012842BAB2FAA30A931900051EFAB
:101B1900123A717F887E0012842BAB2FAA30A9312B
:101B2900900054EF123A717F897E0012842BAB2FFB
:101B3900AA30A931900055EF123A717F8A7E0012BE
:101B4900842BAB2FAA30A931900056EF123A717F3E
:101B59008B7E0012842BAB2FAA30A931900057EF4E
:101B6900123A717F8C7E0012842BAB2FAA30A931D7
:101B7900900058EF123A717F907E0012842BAB2FA0
:101B8900AA30A93190005BEF123A717F917E001261
:101B9900842BAB2FAA30A93190005CEF123A717FE8
:101BA900927E0012842BAB2FAA30A93190005DEFF1
:101BB900123A717F937E0012842BAB2FAA30A93180
:101BC90090005EEF123A717F947E0012842BAB2F46
:101BD900AA30A93190005FEF123A717F987E001206
:101BE900842BAB2FAA30A9319000B4EF123A717F40
:101BF900A07E0012842BAB2FAA30A9319000B5EF3B
:101C0900123A717FA87E0012842BAB2FAA30A9311A
:101C19009000B6EF123A717FB07E0012842BAB2F81
:101C2900AA30A9319000B7EF123A717F997E00125C
:101C3900842BAB2FAA30A9319000BAEF123A717FE9
:101C49009A7E0012842BAB2FAA30A9319000BBEFEA
:101C5900123A717F9B7E0012842BAB2FAA30A931D7
:101C69009000BCEF123A717F9C7E0012842BAB2F3F
:101C7900AA30A9319000BDEF123A717FB87E0012E7
:101C8900842BAB2FAA30A931900062EF123A717FF1
:101C9900B97E0012842BAB2FAA30A931900063EFD3
:101CA900123A717FBA7E0012842BAB2FAA30A93168
:101CB900900064EF123A717FBB7E0012842BAB2F28
:101CC900AA30A931900065EF123A717FBC7E0012EB
:101CD900842BAB2FAA30A931900066EF123A717F9D
:101CE900C07E0012842BAB2FAA30A931900069EF76
:101CF900123A717FC17E0012842BAB2FAA30A93111
:101D090090006AEF123A717FC27E0012842BAB2FCA
:101D1900AA30A93190006BEF123A717FC37E00128D
:101D2900842BAB2FAA30A93190006CEF123A717F46
:101D3900C47E0012842BAB2FAA30A93190006DEF1D
:101D4900123A717FC87E0012842BAB2FAA30A931B9
:101D5900900070EF123A717FC97E0012842BAB2F6D
:101D6900AA30A931900071EF123A717FCA7E001230
:101D7900842BAB2FAA30A931900072EF123A717FF0
:101D8900CB7E0012842BAB2FAA30A931900073EFC0
:101D9900123A717FCC7E0012842BAB2FAA30A93165
:101DA900900074EF123A717FD07E0012842BAB2F12
:101DB900AA30A931900077EF123A717FD17E0012D3
:101DC900842BAB2FAA30A931900078EF123A717F9A
:101DD900D27E0012842BAB2FAA30A931900079EF63
:101DE900123A717FD37E0012842BAB2FAA30A9310E
:101DF90090007AEF123A717FD47E0012842BAB2FB8
:101E0900AA30A93190007BEF123A717FD87E001277
:101E1900842BAB2FAA30A93190007EEF123A717F43
:101E2900D97E0012842BAB2FAA30A93190007FEF05
:101E3900123A717FDA7E0012842BAB2FAA30A931B6
:101E4900900080EF123A717FDB7E0012842BAB2F5A
:101E5900AA30A931900081EF123A717FDC7E00121D
:101E6900842BAB2FAA30A931900082EF123A717FEF
:101E7900E07E0012842BAB2FAA30A931900085EFA8
:101E8900123A717FE17E0012842BAB2FAA30A9315F
:101E9900900086EF123A717FE27E0012842BAB2FFD
:101EA900AA30A931900087EF123A717FE37E0012C0
:101EB900842BAB2FAA30A931900088EF123A717F99
:101EC900E47E0012842BAB2FAA30A931900089EF50
:101ED900123A717FE87E0012842BAB2FAA30A93108
:101EE90090008CEF123A717FE97E0012842BAB2FA0
:101EF900AA30A93190008DEF123A717FEA7E001263
:101F0900842BAB2FAA30A93190008EEF123A717F42
:101F1900EB7E0012842BAB2FAA30A93190008FEFF2
:101F2900123A717FEC7E0012842BAB2FAA30A931B3
:101F3900900090EF123A717FF07E0012842BAB2F44
:101F4900AA30A9319000C6EF123A717FF87E0012CB
:101F5900842BAB2FAA30A9319000C7EF123A717FB9
:101F6900007E0112842BAB2FAA30A9319000C8EF53
:101F7900123A717FF17E0012842BAB2FAA30A9315E
:101F89009000CCEF123A717FF27E0012842BAB2FB6
:101F9900AA30A9319000CDEF123A717FF37E001279
:101FA900842BAB2FAA30A9319000CEEF123A717F62
:101FB900F47E0012842BAB2FAA30A9319000CFEF09
:101FC900123A717F087E0112842BAB2FAA30A931F6
:101FD900900093EF123A717F097E0112842BAB2F87
:101FE900AA30A931900094EF123A717F0A7E01124A
:101FF900842BAB2FAA30A931900095EF123A717F4B
:102009000B7E0112842BAB2FAA30A931900096EFD9
:10201900123A717F0C7E0112842BAB2FAA30A931A1
:10202900900097EF123A717F107E0112842BAB2F2B
:10203900AA30A93190009AEF123A717F117E0112EC
:10204900842BAB2FAA30A93190009BEF123A717FF4
:10205900127E0112842BAB2FAA30A93190009CEF7C
:10206900123A717F137E0112842BAB2FAA30A9314A
:1020790090009DEF123A717F147E0112842BAB2FD1
:10208900AA30A93190009EEF123A717F407E011269
:10209900842BAB2FAA30A9319000ADEF123A717F92
:1020A900417E0112842BAB2FAA30A9319000AEEFEB
:1020B900123A717F427E0112842BAB2FAA30A931CB
:1020C9009000AFEF123A717F437E0112842BAB2F40
:1020D900AA30A9319000B0EF123A717F447E011203
:1020E900842BAB2FAA30A9319000B1EF123A717F3E
:1020F900D47E0112842BAB2FAA30A9319000A1EF15
:10210900123A717FD07E0112842BAB2FAA30A931EC
:102119009000A2EF123A717FD17E0112842BAB2F6E
:10212900AA30A9319000A3EF123A717FD27E011231
:10213900842BAB2FAA30A9319000A4EF123A717FFA
:10214900D37E0112842BAB2FAA30A9319000A5EFC1
:10215900123A717F387E0112842BAB2FAA30A93134
:102169009000D8EF123A717F397E0112842BAB2F80
:10217900AA30A9319000D9EF123A717F3A7E011243
:10218900842BAB2FAA30A9319000DAEF123A717F74
:102199003B7E0112842BAB2FAA30A9319000DBEFD3
:1021A900123A717F3C7E0112842BAB2FAA30A931E0
:1021B9009000DCEF123A717F3D7E0112842BAB2F28
:1021C900AA30A9319000DDEF123A717F3E7E0112EB
:1021D900842BAB2FAA30A9319000DEEF123A717F20
:1021E9003F7E0112842BAB2FAA30A9319000DFEF7B
:1021F900123A717F367E0112842BAB2FAA30A93196
:102209009000E0EF123A717F377E0112842BAB2FD9
:10221900AA30A9319000E1EF123A717F487E01128C
:10222900842BAB2FAA30A9319000EAEF123A717FC3
:10223900497E0112842BAB2FAA30A9319000EBEF14
:10224900123A717F4A7E0112842BAB2FAA30A93131
:102259009000ECEF123A717F4B7E0112842BAB2F69
:10226900AA30A9319000EDEF123A717F4C7E01122C
:10227900842BAB2FAA30A9319000EEEF123A717F6F
:10228900507E0112842BAB2FAA30A9319000F1EFB7
:10229900123A717F517E0112842BAB2FAA30A931DA
:1022A9009000F2EF123A717F527E0112842BAB2F0C
:1022B900AA30A9319000F3EF123A717F537E0112CF
:1022C900842BAB2FAA30A9319000F4EF123A717F19
:1022D900547E0112842BAB2FAA30A9319000F5EF5F
:1022E900123A717F587E0112842BAB2FAA30A93183
:1022F9009000F8EF123A717F597E0112842BAB2FAF
:10230900AA30A9319000F9EF123A717F5A7E011271
:10231900842BAB2FAA30A9319000FAEF123A717FC2
:102329005B7E0112842BAB2FAA30A9319000FBEF01
:10233900123A717F5C7E0112842BAB2FAA30A9312E
:102349009000FCEF123A717F607E0112842BAB2F53
:10235900AA30A9319000FFEF123A717F617E011214
:10236900842BAB2FAA30A931900100EF123A717F6B
:10237900627E0112842BAB2FAA30A931900101EFA3
:10238900123A717F637E0112842BAB2FAA30A931D7
:10239900900102EF123A717F647E0112842BAB2FF8
:1023A900AA30A931900103EF123A717F687E0112B8
:1023B900842BAB2FAA30A931900106EF123A717F15
:1023C900697E0112842BAB2FAA30A931900107EF46
:1023D900123A717F6A7E0112842BAB2FAA30A93180
:1023E900900108EF123A717F6B7E0112842BAB2F9B
:1023F900AA30A931900109EF123A717F6C7E01125E
:10240900842BAB2FAA30A93190010AEF123A717FC0
:10241900707E0112842BAB2FAA30A93190010DEFE8
:10242900123A717F717E0112842BAB2FAA30A93128
:1024390090010EEF123A717F727E0112842BAB2F3D
:10244900AA30A93190010FEF123A717F737E011200
:10245900842BAB2FAA30A931900110EF123A717F6A
:10246900747E0112842BAB2FAA30A931900111EF90
:10247900123A717F807E0112842BAB2FAA30A931C9
:10248900900114EF123A717F817E0112842BAB2FD8
:10249900AA30A931900115EF123A717F827E01129B
:1024A900842BAB2FAA30A931900116EF123A717F14
:1024B900837E0112842BAB2FAA30A931900117EF2B
:1024C900123A717F847E0112842BAB2FAA30A93175
:1024D90090011AEF123A717F857E0112842BAB2F7E
:1024E900AA30A93190011BEF123A717F867E011241
:1024F900842BAB2FAA30A93190011CEF123A717FBE
:10250900877E0112842BAB2FAA30A93190011DEFD0
:10251900123A717F887E0112842BAB2FAA30A93120
:10252900900120EF123A717F897E0112842BAB2F23
:10253900AA30A931900121EF123A717F8A7E0112E6
:10254900842BAB2FAA30A931900122EF123A717F67
:102559008B7E0112842BAB2FAA30A931900123EF76
:10256900123A717F8C7E0112842BAB2FAA30A931CC
:10257900900126EF123A717F8D7E0112842BAB2FC9
:10258900AA30A931900127EF123A717F8E7E01128C
:10259900842BAB2FAA30A931900128EF123A717F11
:1025A9008F7E0112842BAB2FAA30A931900129EF1C
:0325B900023A7172
:100096008E2C8F2D8D2E7B017A0B797D121669AFF2
:1000A6002DAE2C1284C5E52D6420452C7008AD2E8E
:1000B600AF2DAE2C8009900B7DE0FD7F207E0012D7
:1000C6008459E52D6421452C7008AD2EAF2DAE2C3C
:1000D6008009900B7EE0FD7F217E00128459E52D7C
:1000E6006422452C7008AD2EAF2DAE2C8009900BE6
:1000F6007FE0FD7F227E00128459E52D6423452C86
:100106007008AD2EAF2DAE2C8009900B80E0FD7FE0
:10011600237E00128459E52D6424452C7008AD2EEB
:10012600AF2DAE2C8009900B81E0FD7F247E00125E
:100136008459E52D6428452C7008AD2EAF2DAE2CC4
:100146008009900B84E0FD7F287E00128459E52DFE
:100156006429452C7008AD2EAF2DAE2C8009900B6E
:1001660085E0FD7F297E00128459E52D642A452C01
:100176007008AD2EAF2DAE2C8009900B86E0FD7F6A
:100186002A7E00128459E52D642B452C7008AD2E6D
:10019600AF2DAE2C8009900B87E0FD7F2B7E0012E1
:1001A6008459E52D642C452C7008AD2EAF2DAE2C50
:1001B6008009900B88E0FD7F2C7E00128459E52D86
:1001C6006430452C7008AD2EAF2DAE2C8009900BF7
:1001D6008BE0FD7F307E00128459E52D6431452C7D
:1001E6007008AD2EAF2DAE2C8009900B8CE0FD7FF4
:1001F600317E00128459E52D6432452C7008AD2EEF
:10020600AF2DAE2C8009900B8DE0FD7F327E001263
:100216008459E52D6433452C7008AD2EAF2DAE2CD8
:100226008009900B8EE0FD7F337E00128459E52D08
:100236006434452C7008AD2EAF2DAE2C8009900B82
:100246008FE0FD7F347E00128459E52D6438452CFD
:100256007008AD2EAF2DAE2C8009900B92E0FD7F7D
:10026600387E00128459E52D6439452C7008AD2E70
:10027600AF2DAE2C8009900B93E0FD7F397E0012E6
:100286008459E52D643A452C7008AD2EAF2DAE2C61
:100296008009900B94E0FD7F3A7E00128459E52D8B
:1002A600643B452C7008AD2EAF2DAE2C8009900B0B
:1002B60095E0FD7F3B7E00128459E52D643C452C7C
:1002C6007008AD2EAF2DAE2C8009900B96E0FD7F09
:1002D6003C7E00128459E52D6440452C7008AD2EF5
:1002E600AF2DAE2C8009900B99E0FD7F407E001269
:1002F6008459E52D6441452C7008AD2EAF2DAE2CEA
:100306008009900B9AE0FD7F417E00128459E52D0D
:100316006442452C7008AD2EAF2DAE2C8009900B93
:100326009BE0FD7F427E00128459E52D6443452CF7
:100336007008AD2EAF2DAE2C8009900B9CE0FD7F92
:10034600437E00128459E52D6444452C7008AD2E79
:10035600AF2DAE2C8009900B9DE0FD7F3C7E0012F8
:100366008459E52D6448452C7008AD2EAF2DAE2C72
:100376008009900BA0E0FD7F487E00128459E52D90
:100386006449452C7008AD2EAF2DAE2C8009900B1C
:10039600A1E0FD7F497E00128459E52D644A452C73
:1003A6007008AD2EAF2DAE2C8009900BA2E0FD7F1C
:1003B6004A7E00128459E52D644B452C7008AD2EFB
:1003C600AF2DAE2C8009900BA3E0FD7F4B7E001273
:1003D6008459E52D644C452C7008AD2EAF2DAE2CFE
:1003E6008009900BA4E0FD7F4C7E00128459E52D18
:1003F6006450452C7008AD2EAF2DAE2C8009900BA5
:10040600A7E0FD7F507E00128459E52D6451452CEE
:100416007008AD2EAF2DAE2C8009900BA8E0FD7FA5
:10042600517E00128459E52D6452452C7008AD2E7C
:10043600AF2DAE2C8009900BA9E0FD7F527E0012F5
:100446008459E52D6453452C7008AD2EAF2DAE2C86
:100456008009900BAAE0FD7F537E00128459E52D9A
:100466006454452C7008AD2EAF2DAE2C8009900B30
:10047600ABE0FD7F547E00128459E52D6458452C6F
:100486007008AD2EAF2DAE2C8009900BAEE0FD7F2F
:10049600587E00128459E52D6459452C7008AD2EFE
:1004A600AF2DAE2C8009900BAFE0FD7F597E001278
:1004B6008459E52D645A452C7008AD2EAF2DAE2C0F
:1004C6008009900BB0E0FD7F5A7E00128459E52D1D
:1004D600645B452C7008AD2EAF2DAE2C8009900BB9
:1004E600B1E0FD7F5B7E00128459E52D645C452CEE
:1004F6007008AD2EAF2DAE2C8009900BB2E0FD7FBB
:100506005C7E00128459E52D6460452C7008AD2E82
:10051600AF2DAE2C8009900BB5E0FD7F607E0012FA
:100526008459E52D6461452C7008AD2EAF2DAE2C97
:100536008009900BB6E0FD7F617E00128459E52D9F
:100546006462452C7008AD2EAF2DAE2C8009900B41
:10055600B7E0FD7F627E00128459E52D6463452C69
:100566007008AD2EAF2DAE2C8009900BB8E0FD7F44
:10057600637E00128459E52D6464452C7008AD2E07
:10058600AF2DAE2C8009900BB9E0FD7F647E001282
:100596008459E52D6468452C7008AD2EAF2DAE2C20
:1005A6008009900BBCE0FD7F687E00128459E52D22
:1005B6006469452C7008AD2EAF2DAE2C8009900BCA
:1005C600BDE0FD7F697E00128459E52D646A452CE5
:1005D6007008AD2EAF2DAE2C8009900BBEE0FD7FCE
:1005E6006A7E00128459E52D646B452C7008AD2E89
:1005F600AF2DAE2C8009900BBFE0FD7F6B7E001205
:100606008459E52D646C452C7008AD2EAF2DAE2CAB
:100616008009900BC0E0FD7F6C7E00128459E52DA9
:100626006470452C7008AD2EAF2DAE2C8009900B52
:10063600C3E0FD7F707E00128459E52D6471452C60
:100646007008AD2EAF2DAE2C8009900BC4E0FD7F57
:10065600717E00128459E52D6472452C7008AD2E0A
:10066600AF2DAE2C8009900BC5E0FD7F727E001287
:100676008459E52D6473452C7008AD2EAF2DAE2C34
:100686008009900BC6E0FD7F737E00128459E52D2C
:100696006474452C7008AD2EAF2DAE2C8009900BDE
:1006A600C7E0FD7F747E00128459E52D6480452CD9
:1006B6007008AD2EAF2DAE2C8009900BCAE0FD7FE1
:1006C600807E00128459E52D6481452C7008AD2E7C
:1006D600AF2DAE2C8009900BCBE0FD7F817E001202
:1006E6008459E52D6482452C7008AD2EAF2DAE2CB5
:1006F6008009900BCCE0FD7F827E00128459E52DA7
:100706006483452C7008AD2EAF2DAE2C8009900B5E
:10071600CDE0FD7F837E00128459E52D6484452C4F
:100726007008AD2EAF2DAE2C8009900BCEE0FD7F6C
:10073600847E00128459E52D6488452C7008AD2E00
:10074600AF2DAE2C8009900BD1E0FD7F887E001284
:100756008459E52D6489452C7008AD2EAF2DAE2C3D
:100766008009900BD2E0FD7F897E00128459E52D29
:10077600648A452C7008AD2EAF2DAE2C8009900BE7
:10078600D3E0FD7F8A7E00128459E52D648B452CCB
:100796007008AD2EAF2DAE2C8009900BD4E0FD7FF6
:1007A6008B7E00128459E52D648C452C7008AD2E85
:1007B600AF2DAE2C8009900BD5E0FD7F8C7E00120C
:1007C6008459E52D6490452C7008AD2EAF2DAE2CC6
:1007D6008009900BD8E0FD7F907E00128459E52DAC
:1007E6006491452C7008AD2EAF2DAE2C8009900B70
:1007F600D9E0FD7F917E00128459E52D6492452C47
:100806007008AD2EAF2DAE2C8009900BDAE0FD7F7F
:10081600927E00128459E52D6493452C7008AD2E06
:10082600AF2DAE2C8009900BDBE0FD7F937E00128E
:100836008459E52D6494452C7008AD2EAF2DAE2C51
:100846008009900BDCE0FD7F947E00128459E52D33
:100856006498452C7008AD2EAF2DAE2C8009900CF7
:1008660031E0FD7F987E00128459E52D64A0452C69
:100876007008AD2EAF2DAE2C8009900C32E0FD7FB6
:10088600A07E00128459E52D64A8452C7008AD2E73
:10089600AF2DAE2C8009900C33E0FD7FA87E0012B0
:1008A6008459E52D64B0452C7008AD2EAF2DAE2CC5
:1008B6008009900C34E0FD7FB07E00128459E52D4E
:1008C6006499452C7008AD2EAF2DAE2C8009900C86
:1008D60037E0FD7F997E00128459E52D649A452CF8
:1008E6007008AD2EAF2DAE2C8009900C38E0FD7F40
:1008F6009A7E00128459E52D649B452C7008AD2E16
:10090600AF2DAE2C8009900C39E0FD7F9B7E001246
:100916008459E52D649C452C7008AD2EAF2DAE2C68
:100926008009900C3AE0FD7F9C7E00128459E52DEB
:1009360064B8452C7008AD2EAF2DAE2C8009900BF7
:10094600DFE0FD7FB87E00128459E52D64B9452CA1
:100956007008AD2EAF2DAE2C8009900BE0E0FD7F28
:10096600B97E00128459E52D64BA452C7008AD2E67
:10097600AF2DAE2C8009900BE1E0FD7FBA7E001210
:100986008459E52D64BB452C7008AD2EAF2DAE2CD9
:100996008009900BE2E0FD7FBB7E00128459E52DB5
:1009A60064BC452C7008AD2EAF2DAE2C8009900B83
:1009B600E3E0FD7FBC7E00128459E52D64C0452C22
:1009C6007008AD2EAF2DAE2C8009900BE6E0FD7FB2
:1009D600C07E00128459E52D64C1452C7008AD2EE9
:1009E600AF2DAE2C8009900BE7E0FD7FC17E001293
:1009F6008459E52D64C2452C7008AD2EAF2DAE2C62
:100A06008009900BE8E0FD7FC27E00128459E52D37
:100A160064C3452C7008AD2EAF2DAE2C8009900B0B
:100A2600E9E0FD7FC37E00128459E52D64C4452CA0
:100A36007008AD2EAF2DAE2C8009900BEAE0FD7F3D
:100A4600C47E00128459E52D64C8452C7008AD2E6D
:100A5600AF2DAE2C8009900BEDE0FD7FC87E001215
:100A66008459E52D64C9452C7008AD2EAF2DAE2CEA
:100A76008009900BEEE0FD7FC97E00128459E52DBA
:100A860064CA452C7008AD2EAF2DAE2C8009900B94
:100A9600EFE0FD7FCA7E00128459E52D64CB452C1C
:100AA6007008AD2EAF2DAE2C8009900BF0E0FD7FC7
:100AB600CB7E00128459E52D64CC452C7008AD2EF2
:100AC600AF2DAE2C8009900BF1E0FD7FCC7E00129D
:100AD6008459E52D64D0452C7008AD2EAF2DAE2C73
:100AE6008009900BF4E0FD7FD07E00128459E52D3D
:100AF60064D1452C7008AD2EAF2DAE2C8009900B1D
:100B0600F5E0FD7FD17E00128459E52D64D2452C97
:100B16007008AD2EAF2DAE2C8009900BF6E0FD7F50
:100B2600D27E00128459E52D64D3452C7008AD2E73
:100B3600AF2DAE2C8009900BF7E0FD7FD37E00121F
:100B46008459E52D64D4452C7008AD2EAF2DAE2CFE
:100B56008009900BF8E0FD7FD47E00128459E52DC4
:100B660064D8452C7008AD2EAF2DAE2C8009900BA5
:100B7600FBE0FD7FD87E00128459E52D64D9452C13
:100B86007008AD2EAF2DAE2C8009900BFCE0FD7FDA
:100B9600D97E00128459E52D64DA452C7008AD2EF5
:100BA600AF2DAE2C8009900BFDE0FD7FDA7E0012A2
:100BB6008459E52D64DB452C7008AD2EAF2DAE2C87
:100BC6008009900BFEE0FD7FDB7E00128459E52D47
:100BD60064DC452C7008AD2EAF2DAE2C8009900B31
:100BE600FFE0FD7FDC7E00128459E52D64E0452C94
:100BF6007008AD2EAF2DAE2C8009900C02E0FD7F63
:100C0600E07E00128459E52D64E1452C7008AD2E76
:100C1600AF2DAE2C8009900C03E0FD7FE17E001223
:100C26008459E52D64E2452C7008AD2EAF2DAE2C0F
:100C36008009900C04E0FD7FE27E00128459E52DC8
:100C460064E3452C7008AD2EAF2DAE2C8009900CB8
:100C560005E0FD7FE37E00128459E52D64E4452C12
:100C66007008AD2EAF2DAE2C8009900C06E0FD7FEE
:100C7600E47E00128459E52D64E8452C7008AD2EFB
:100C8600AF2DAE2C8009900C09E0FD7FE87E0012A6
:100C96008459E52D64E9452C7008AD2EAF2DAE2C98
:100CA6008009900C0AE0FD7FE97E00128459E52D4B
:100CB60064EA452C7008AD2EAF2DAE2C8009900C41
:100CC6000BE0FD7FEA7E00128459E52D64EB452C8E
:100CD6007008AD2EAF2DAE2C8009900C0CE0FD7F78
:100CE600EB7E00128459E52D64EC452C7008AD2E80
:100CF600AF2DAE2C8009900C0DE0FD7FEC7E00122E
:100D06008459E52D64F0452C7008AD2EAF2DAE2C20
:100D16008009900C43E0FD7FF07E00128459E52D9A
:100D260064F8452C7008AD2EAF2DAE2C8009900CC2
:100D360044E0FD7FF87E00128459E4B52D0CE52CC5
:100D4600B40107AD2EAF2DFE8009900C45E0FD7F66
:100D5600007E01128459E52D64F1452C7008AD2EF4
:100D6600AF2DAE2C8009900C49E0FD7FF17E00127C
:100D76008459E52D64F2452C7008AD2EAF2DAE2CAE
:100D86008009900C4AE0FD7FF27E00128459E52D21
:100D960064F3452C7008AD2EAF2DAE2C8009900C57
:100DA6004BE0FD7FF37E00128459E52D64F4452C5B
:100DB6007008AD2EAF2DAE2C8009900C4CE0FD7F57
:100DC600F47E00128459E52DB4080CE52CB4010715
:100DD600AD2EAF2DFE8009900C10E0FD7F087E0140
:100DE600128459E52DB4090CE52CB40107AD2EAFDC
:100DF6002DFE8009900C11E0FD7F097E01128459B9
:100E0600E52DB40A0CE52CB40107AD2EAF2DFE80FE
:100E160009900C12E0FD7F0A7E01128459E52DB47B
:100E26000B0CE52CB40107AD2EAF2DFE8009900CFE
:100E360013E0FD7F0B7E01128459E52DB40C0CE501
:100E46002CB40107AD2EAF2DFE8009900C14E0FDE9
:100E56007F0C7E01128459E52DB4100CE52CB401EB
:100E660007AD2EAF2DFE8009900C17E0FD7F107E9A
:100E760001128459E52DB4110CE52CB40107AD2EF1
:100E8600AF2DFE8009900C18E0FD7F117E011284C3
:100E960059E52DB4120CE52CB40107AD2EAF2DFE8D
:100EA6008009900C19E0FD7F127E01128459E52D10
:100EB600B4130CE52CB40107AD2EAF2DFE800990BE
:100EC6000C1AE0FD7F137E01128459E52DB4140C33
:100ED600E52CB40107AD2EAF2DFE8009900C1BE06A
:100EE600FD7F147E01128459E52DB4400CE52CB427
:100EF6000107AD2EAF2DFE8009900C2AE0FD7F4044
:100F06007E01128459E52DB4410CE52CB40107ADE0
:100F16002EAF2DFE8009900C2BE0FD7F417E011245
:100F26008459E52DB4420CE52CB40107AD2EAF2D46
:100F3600FE8009900C2CE0FD7F427E01128459E56B
:100F46002DB4430CE52CB40107AD2EAF2DFE800960
:100F5600900C2DE0FD7F437E01128459E52DB444AB
:100F66000CE52CB40107AD2EAF2DFE8009900C2E9A
:100F7600E0FD7F447E01128459E52DB4D40CE52CA6
:100F8600B40107AD2EAF2DFE8009900C1EE0FD7F4B
:100F9600D47E01128459E52DB4D00CE52CB401079A
:100FA600AD2EAF2DFE8009900C1FE0FD7FD07E0197
:100FB600128459E52DB4D10CE52CB40107AD2EAF42
:100FC6002DFE8009900C20E0FD7FD17E0112845910
:100FD600E52DB4D20CE52CB40107AD2EAF2DFE8065
:100FE60009900C21E0FD7FD27E01128459E52DB4D3
:100FF600D30CE52CB40107AD2EAF2DFE8009900C65
:1010060022E0FD7FD37E01128459E52DB4380CE52C
:101016002CB40107AD2EAF2DFE8009900C55E0FDD6
:101026007F387E01128459E52DB4390CE52CB401C4
:1010360007AD2EAF2DFE8009900C56E0FD7F397E60
:1010460001128459E52DB43A0CE52CB40107AD2EF6
:10105600AF2DFE8009900C57E0FD7F3A7E01128489
:1010660059E52DB43B0CE52CB40107AD2EAF2DFE92
:101076008009900C58E0FD7F3B7E01128459E52DD6
:10108600B43C0CE52CB40107AD2EAF2DFE800990C3
:101096000C59E0FD7F3C7E01128459E52DB43D0CD0
:1010A600E52CB40107AD2EAF2DFE8009900C5AE059
:1010B600FD7F3D7E01128459E52DB43E0CE52CB42E
:1010C6000107AD2EAF2DFE8009900C5BE0FD7F3E43
:1010D6007E01128459E52DB43F0CE52CB40107AD11
:1010E6002EAF2DFE8009900C5CE0FD7F3F7E011245
:1010F6008459E52DB4360CE52CB40107AD2EAF2D81
:10110600FE8009900C5DE0FD7F367E01128459E574
:101116002DB4370CE52CB40107AD2EAF2DFE80099A
:10112600900C5EE0FD7F377E01128459E52DB448B0
:101136000CE52CB40107AD2EAF2DFE8009900C678F
:10114600E0FD7F487E01128459E52DB4490CE52C5B
:10115600B40107AD2EAF2DFE8009900C68E0FD7F2F
:10116600497E01128459E52DB44A0CE52CB40107D9
:10117600AD2EAF2DFE8009900C69E0FD7F4A7E0101
:10118600128459E52DB44B0CE52CB40107AD2EAFF6
:101196002DFE8009900C6AE0FD7F4B7E011284597A
:1011A600E52DB44C0CE52CB40107AD2EAF2DFE8019
:1011B60009900C6BE0FD7F4C7E01128459E52DB43D
:1011C600500CE52CB40107AD2EAF2DFE8009900C16
:1011D6006EE0FD7F507E01128459E52DB4510CE579
:1011E6002CB40107AD2EAF2DFE8009900C6FE0FDEB
:1011F6007F517E01128459E52DB4520CE52CB401C1
:1012060007AD2EAF2DFE8009900C70E0FD7F527E5B
:1012160001128459E52DB4530CE52CB40107AD2E0B
:10122600AF2DFE8009900C71E0FD7F537E01128484
:1012360059E52DB4540CE52CB40107AD2EAF2DFEA7
:101246008009900C72E0FD7F547E01128459E52DD1
:10125600B4580CE52CB40107AD2EAF2DFE800990D5
:101266000C75E0FD7F587E01128459E52DB4590CAA
:10127600E52CB40107AD2EAF2DFE8009900C76E06B
:10128600FD7F597E01128459E52DB45A0CE52CB424
:101296000107AD2EAF2DFE8009900C77E0FD7F5A39
:1012A6007E01128459E52DB45B0CE52CB40107AD23
:1012B6002EAF2DFE8009900C78E0FD7F5B7E01123B
:1012C6008459E52DB45C0CE52CB40107AD2EAF2D89
:1012D600FE8009900C79E0FD7F5C7E01128459E561
:1012E6002DB4600CE52CB40107AD2EAF2DFE8009A0
:1012F600900C7CE0FD7F607E01128459E52DB4617F
:101306000CE52CB40107AD2EAF2DFE8009900C7DA7
:10131600E0FD7F617E01128459E52DB4620CE52C57
:10132600B40107AD2EAF2DFE8009900C7EE0FD7F47
:10133600627E01128459E52DB4630CE52CB40107D5
:10134600AD2EAF2DFE8009900C7FE0FD7F637E0100
:10135600128459E52DB4640CE52CB40107AD2EAF0B
:101366002DFE8009900C80E0FD7F647E0112845979
:10137600E52DB4680CE52CB40107AD2EAF2DFE802B
:1013860009900C83E0FD7F687E01128459E52DB437
:10139600690CE52CB40107AD2EAF2DFE8009900C2B
:1013A60084E0FD7F697E01128459E52DB46A0CE55F
:1013B6002CB40107AD2EAF2DFE8009900C85E0FD03
:1013C6007F6A7E01128459E52DB46B0CE52CB401BD
:1013D60007AD2EAF2DFE8009900C86E0FD7F6B7E5B
:1013E60001128459E52DB46C0CE52CB40107AD2E21
:1013F600AF2DFE8009900C87E0FD7F6C7E01128484
:1014060059E52DB4700CE52CB40107AD2EAF2DFEB9
:101416008009900C8AE0FD7F707E01128459E52DCB
:10142600B4710CE52CB40107AD2EAF2DFE800990EA
:101436000C8BE0FD7F717E01128459E52DB4720C90
:10144600E52CB40107AD2EAF2DFE8009900C8CE083
:10145600FD7F727E01128459E52DB4730CE52CB420
:101466000107AD2EAF2DFE8009900C8DE0FD7F7338
:101476007E01128459E52DB4740CE52CB40107AD38
:101486002EAF2DFE8009900C8EE0FD7F747E01123A
:101496008459E52DB4800CE52CB40107AD2EAF2D93
:1014A600FE8009900C91E0FD7F807E01128459E553
:1014B6002DB4810CE52CB40107AD2EAF2DFE8009AD
:1014C600900C92E0FD7F817E01128459E52DB48255
:1014D6000CE52CB40107AD2EAF2DFE8009900C93C0
:1014E600E0FD7F827E01128459E52DB4830CE52C44
:1014F600B40107AD2EAF2DFE8009900C94E0FD7F60
:10150600837E01128459E52DB4840CE52CB40107C1
:10151600AD2EAF2DFE8009900C97E0FD7F847E01F5
:10152600128459E52DB4850CE52CB40107AD2EAF18
:101536002DFE8009900C98E0FD7F857E011284596E
:10154600E52DB4860CE52CB40107AD2EAF2DFE803B
:1015560009900C99E0FD7F867E01128459E52DB431
:10156600870CE52CB40107AD2EAF2DFE8009900C3B
:101576009AE0FD7F877E01128459E52DB4880CE53B
:101586002CB40107AD2EAF2DFE8009900C9DE0FD19
:101596007F887E01128459E52DB4890CE52CB401AF
:1015A60007AD2EAF2DFE8009900C9EE0FD7F897E53
:1015B60001128459E52DB48A0CE52CB40107AD2E31
:1015C600AF2DFE8009900C9FE0FD7F8A7E0112847C
:1015D60059E52DB48B0CE52CB40107AD2EAF2DFECD
:1015E6008009900CA0E0FD7F8B7E01128459E52DC9
:1015F600B48C0CE52CB40107AD2EAF2DFE800990FE
:101606000CA3E0FD7F8C7E01128459E52DB48D0C70
:10161600E52CB40107AD2EAF2DFE8009900CA4E099
:10162600FD7F8D7E01128459E52DB48E0CE52CB418
:101636000107AD2EAF2DFE8009900CA5E0FD7F8E33
:101646007E01128459E52DB48F0CE52CB40107AD4B
:101656002EAF2DFE8009900CA6E0FD7F8F7E011235
:0316660084592282
:0683DF008B228A23892491
:1083E500E4FF7EF1AD060EA805E6FDAB220524E50A
:1083F50024AA237002052314F9ED123A5F0FBF0773
:01840500E393
:018406002253
:108442007D527C03ED1D70011C144C70F7EF1F7000
:06845200011E144E70EA49
:018458002201
:10779000460A4B00000000000060300A170000009D
:1077A00000000000000000000000000000000000D9
:1077B00000000000000000000000000000000000C9
:1077C00000000000000000000000000000440A4724
:1077D00000000000010800010900010A00020B007E
:0B77E00000010D00010E00410A160020
:0682B3008B298A2A892BA9
:1082B900E9240EF9E43AFA127AC6900D7CEFF0AB94
:1082C90029E52B2415F9E4352AFA127AC6900D7D91
:1082D900EFF0900D7CE0B40107A3E070037F012269
:0282E9007F0014
:0182EB002270
:0682EC008B298A2A892B70
:1082F200E9240EF9E43AFA127AC6900D7CEFF0AB5B
:1083020029E52B2415F9E4352AFA127AC6900D7D57
:10831200EFF0900D7CE07008A3E0B401037F01222E
:028322007F00DA
:018324002236
:067EC2008B298A2A892B9E
:107EC800E9243FF9E43AFA127AC6900D7CEFF0AB58
:107ED80029E52B2438F9E4352AFA127AC6900D7D63
:107EE800EFF0AB29AA2AA92B90003C1239DD900D9E
:107EF8007EF0900D7CE0B40103750801900D7EE0E2
:107F080014603114602E14602B24037027900D7DAB
:107F1800E0FEB4010EE508B40109E4F508750901AD
:107F28007F0122EEB40108E509B401037F0122E4D0
:077F3800F509FF227F002282
:0A85D800E92407F9E43AFA127AC622
:0185E2002276
:0A85E300E92446F9E43AFA127AC6D8
:0185ED00226B
:1084D900E9245BF9E43AFA127AC6BF01037FF02274
:0284E9007F0012
:0184EB00226E
:0A85EE00E92485F9E43AFA127AC68E
:0185F8002260
:0A85F900E92454F9E43AFA127AC6B4
:018603002254
:060003007B017A0A79512D
:10000900E924C6F9E43AFA7D01126A67BF01047F5F
:050019004680027F1487
:01001E0022BF
:10846F00E924C6F9E43AFA7D02126A67BF01047F74
:05847F004680027F149D
:0184840022D5
:0A860400E92477F9E43AFA127AC685
:01860E002249
:0684EC007B017A0A7951C0
:0A84F200E9241CF9E43AFA127AC6F4
:0184FC00225D
:0684FD007B017A0A7951AF
:0A850300E92423F9E43AFA127AC6DB
:01850D00224B
:0A860F00E9244DF9E43AFA127AC6A4
:01861900223E
:0A861A00E92431F9E43AFA127AC6B5
:018624002233
:0A862500E9247EF9E43AFA127AC65D
:01862F002228
:0A863000E92462F9E43AFA127AC66E
:01863A00221D
:06850E007B017A0A79519D
:0A851400E9243FF9E43AFA127AC6AE
:01851E00223A
:0F851F00E92469F9E43AFA127AC6900D7CEFF07C
:01852E00222A
:03001F00127AC68C
:0100220022BB
:066F66008B298A2A892B09
:106F6C00E4900D7CF0E924B4F9E43AFA7D01126A5C
:106F7C0067900D7DEFF0AB29E52B24B4F9E4352AAD
:106F8C00FA7D02126A67900D7EEFF0AB29E52B2497
:106F9C00B4F9E4352AFA7D03126A67900D7FEFF09D
:106FAC00AB29E52B24B4F9E4352AFA7D04126A677F
:106FBC00900D80EFF0AB29AA2AA92B9000BD1239B5
:106FCC00DD900D81F0146061046003027087900DF8
:106FDC007EE025E0FF900D7DE04FFF900D7FE025DA
:106FEC00E025E04FFFA3E033333354F84FFF900D0F
:106FFC007CF0BF01037F0122900D7CE0FEB4020304
:10700C007F0222EEB404037F0322900D7CE0FEB4D9
:10701C0008037F0422EEB405037F0522900D7CE06B
:10702C00B40F037F08227F0022900D7EE025E0FF45
:10703C00900D7DE04FFF900D7FE025E025E04FFFA8
:10704C00900D7CF0BF06037F0122900D7CE0FEB416
:10705C0005037F0222EEB404037F0322900D7CE033
:10706C00FEB403037F0422EEB402037F0522900DCD
:0D707C007CE0B401037F08227F00227F002A
:0170890022E4
:0F852F00E9249AF9E43AFA127AC6900D7CEFF03B
:01853E00221A
:0A863B00E9242AF9E43AFA127AC69B
:018645002212
:0A864600E9248CF9E43AFA127AC62E
:018650002207
:0A865100E92470F9E43AFA127AC63F
:01865B0022FC
:0A865C00E92493F9E43AFA127AC611
:0186660022F1
:10848500E924C6F9E43AFA7D03126A67BF01047F5D
:058495004680027F1487
:01849A0022BF
:06835D008B298A2A892BFE
:10836300E9240EF9E43AFA127AC68F2CAB29E52BED
:108373002415F9E4352AFA127AC6E52CB40106BFAE
:0783830001037F01227F00CE
:01838A0022D0
:0C85B500126F66EF60037F01227F00223E
:0A866700E924ADF9E43AFA127AC6EC
:0186710022E6
:0C855B00E924D8F9E43AFA7D01126A67BD
:0185670022F1
:0C856800E924D8F9E43AFA7D02126A67AF
:0185740022E4
:0C857500E924D8F9E43AFA7D03126A67A1
:0185810022D7
:0C858200E924D8F9E43AFA7D04126A6793
:01858E0022CA
:0C858F00E924D8F9E43AFA7D05126A6785
:01859B0022BD
:0C859C00E924D8F9E43AFA7D06126A6777
:0185A80022B0
:0A81E7001239C4FD7B017A0A7951B8
:1081F1009000A41239DD650A7037F50AAF8CF50BD2
:108201008F0CE50C750C00F50BAF8AEF250CF50C06
:10821100E4350BF50BE4F58CF58AE50C450B701391
:108221009000A51239DDB4010A750B03750C20808D
:0782310002050AAE0BAF0CC1
:018238002223
:0A867200E924EAF9E43AFA127AC6A4
:01867C0022DB
:0A867D00E924F1F9E43AFA127AC692
:0186870022D0
:0A868800E924F8F9E43AFA127AC680
:0186920022C5
:0A869300E924FFF9E43AFA127AC66E
:01869D0022BA
:0B85C100E92406F9EA3401FA127AC638
:0185CC00228C
:066153008B298A2A892B2A
:10615900E4900D7CF0A3F0A3F0A3F0A3F0A3F0EF7B
:106169007003026362E4900A4BF0A3F0900A4FF0C7
:10617900A3F0AB29AA2AA92B125224EF64016003C8
:10618900026362900D7CF0900D7CE0FFC3940440A3
:10619900030262BEEF75F006A4AB29252BF9E52AA7
:1061A90035F0FA9001141239DD70030262BE9001D4
:1061B90018123AEAFF900D7EE5F0F0A3EFF0E490B3
:1061C9000D81F0900D7CE075F006A4AB29252BF923
:1061D900E52A35F0FA9001161239DDFF900D81E0BC
:1061E900C39F40030262B5E0FC900D7EE0FEA3E090
:1061F900A804088005CEC313CE13D8F95401FF9023
:106209000D80F0AB29E52B240DF9E52A3401FA902C
:106219000D7CE0FD8F308C311268F0900D7DEFF030
:10622900703F900D7CE075F006A4AB29252BF9E5AC
:106239002A35F0FAE92418F9EA3401FA123ABFFDCD
:10624900ACF0900D81E0FF74017E00A8070880057D
:10625900C333CE33CED8F9F4FFEEF45CFEED5F80A4
:106269003B900D7CE075F006A4AB29252BF9E52AB6
:1062790035F0FAE92418F9EA3401FA123ABFFDAC0B
:10628900F0900D81E0FF74017E00A807088005C326
:1062990033CE33CED8F9FFEC4EFEED4FFFEE8FF043
:1062A900123B22900D81E004F00261CC900D7CE05C
:1062B90004F0026190E50DC39404400302635FE5B5
:1062C9000D75F006A4AB29252BF9E52A35F0FA90CE
:1062D90001141239DD7004F50D807B900118123A12
:1062E900EAFF900D7EE5F0F0A3EFF0E50D75F006FD
:1062F900A4AB29252BF9E52A35F0FA9001161239B4
:10630900DDFFE50EC39F5046900D7EE0FEA3E0A899
:106319000E088005CEC313CE13D8F95401FF900D92
:1063290080F0BF01259001141239DD900A4BF090DD
:1063390001151239DD900A4CF0E50E2401FEE43313
:10634900900A4FF0A3CEF0050E22050E809DE4F5CC
:096359000E050D0262BEE4F50D13
:016362002218
:10002600EF6016E4900A4BF0A3F0900A4FF0A3F0AD
:0A0036007B017A0A794B126E3D221D
:087D3B007A0A79177B01E4FFCD
:107D43008F2F8B308A318932E52F607112551DEFE9
:107D530064017069E52F64017063AB30AA31A93205
:107D63001239C4FF900A47E0FEC3EF9E123A5FAB9D
:107D730030E5322401F9E43531FA1239C4FF900AAF
:107D830048E0FEC3EF9E123A5FAB30E5322402F9BE
:107D9300E43531FA1239C4FF900A49E0FEC3EF9E7D
:107DA300123A5FAB30E5322403F9E43531FA123984
:0E7DB300C4FF900A4AE0FEC3EF9E123A5F2220
:108325008B2C8A2D892EEF602E127D43AB2CAA2D26
:10833500A92E1239C4900A47F09000011239DD9038
:108345000A48F09000021239DD900A49F0900003C6
:088355001239DD900A4AF02202
:1083B6007F0212739C7F02127C0F125A677F011292
:1083C600739C7F01127C0F7FC87E001284427B0162
:0983D6007A0A793B7F010283253C
:105A67007B017A0A7951900D78EBF0A3EAF0A3E96C
:105A7700F0121669900D78E0FBA3E0FAA3E0F99025
:105A8700000E1239DD700790000E04123A71900073
:105A9700151239DD70089000157402123A719000E2
:105AA700381239DD70089000387403123A7190008B
:105AB700071239DD70089000077404123A719000DC
:105AC700461239DD70089000467405123A7190004D
:105AD7005B1239DD700890005B7406123A71900012
:105AE700851239DD70089000857407123A719000AD
:105AF700541239DD70089000547408123A719000FE
:105B0700C61239DD70089000C67409123A71900008
:105B1700C71239DD70089000C7740A123A719000F5
:105B2700771239DD7008900077740B123A71900084
:105B37001C1239DD700890001C740C123A71900029
:105B4700231239DD7008900023740D123A7190000A
:105B57004D1239DD700890004D740E123A719000A5
:105B6700311239DD7008900031740F123A719000CC
:105B77007E1239DD700890007E7410123A71900021
:105B8700621239DD70089000627411123A71900048
:105B97003F1239DD700890003F7412123A7190007D
:105BA700691239DD70089000697413123A71900018
:105BB7009A1239DD700890009A7414123A719000A5
:105BC700B41239DD70089000B47415123A71900060
:105BD700B51239DD70089000B57416123A7190004D
:105BE700B61239DD70089000B67417123A7190003A
:105BF700B71239DD70089000B77418123A7112396C
:105C0700C470057419123A5F900D78E0FBA3E0FAAF
:105C1700A3E0F990002A1239DD700890002A741A5F
:105C2700123A719000A11239DD70089000A1741B1F
:105C3700123A7190008C1239DD700890008C741C38
:105C4700123A719000701239DD7008900070741D5F
:105C5700123A719000931239DD7008900093741E08
:105C6700123A719000C81239DD70089000C874208C
:105C7700123A719000EA1239DD70089000EA740553
:105C8700123A719000F11239DD70089000F1741129
:105C9700123A719000F81239DD70089000F8741309
:105CA700123A719000FF1239DD70089000FF7406F8
:105CB700123A719001061239DD70089001067410CE
:035CC700123A711D
:015CCA0022B7
:0A3EC0008B248A2589268C278D2883
:103ECA007B017A0A79517F04126153E4FF120026BA
:103EDA00127D3B7A0A7923127D3F7B017A0A792F78
:103EEA00E4FF127D437B017A0A793B7F01127D430D
:103EFA00127D3BAB24AA25A926C003C002C0011229
:103F0A0039C4FEC0067B017A0A795112861AD0E0BA
:103F1A004FD001D002D003123A5FAB24AA25A926BA
:103F2A00C003C002C0011239C4FFC0077B017A0A6C
:103F3A00795112863BEF25E0FED0E04ED001D00247
:103F4A00D003123A5FAB24AA25A926C003C002C037
:103F5A00011239C4FFC0071284FDEF25E025E0FEF7
:103F6A00D0E04ED001D002D003123A5FAB24AA258A
:103F7A00A926C003C002C0011239C4FFC0071284B7
:103F8A00ECEF33333354F8FED0E04ED001D002D0F8
:103F9A0003123A5FAB24AA25A926C003C002C001B6
:103FAA001239C4FFC0077B017A0A79511282ECEFF9
:103FBA00C454F0FED0E04ED001D002D003123A5FD2
:103FCA00AB24AA25A926C003C002C0011239C4FF26
:103FDA00C0077B017A0A79511282B3EFC43354E0E5
:103FEA00FED0E04ED001D002D003123A5FAB24AA31
:103FFA0025A926C003C002C0011239C4FFC0077B2D
:10400A00017A0A79511285D8EFC4333354C0FED0ED
:10401A00E04ED001D002D003123A5FAB24AA25A900
:10402A0026C003C002C0011239C4FFC0077B017A4F
:10403A000A795112001FEFC43333335480FED0E0A3
:10404A004ED001D002D003123A5FAB24E5262401F8
:10405A00F9E43525FAC003C002C0011239C4FEC012
:10406A00067B017A0A79511285F9D0E04FD001D046
:10407A0002D003123A5FAB24E5262401F9E4352580
:10408A00FAC003C002C0011239C4FFC0077B017A1B
:10409A000A79511285EEEF25E025E0FED0E04ED0F8
:1040AA0001D002D003123A5FAB24E5262401F9E4D9
:1040BA003525FAC003C002C0011239C4FFC0077B0C
:1040CA00017A0A795112860FEF33333354F8FED04E
:1040DA00E04ED001D002D003123A5FAB24E5262489
:1040EA0001F9E43525FAC003C002C0011239C4FF40
:1040FA00C0077B017A0A795112835DEFC454F0FE3E
:10410A00D0E04ED001D002D003123A5FAB24E526AC
:10411A002401F9E43525FAC003C002C0011239C4EA
:10412A00FFC0077B017A0A79511285E3EFC4335441
:10413A00E0FED0E04ED001D002D003123A5FAB24A9
:10414A00E5262401F9E43525FAC003C002C00112AC
:10415A0039C4FFC00712850EEFC4333354C0FED0F2
:10416A00E04ED001D002D003123A5FAB24E52624F8
:10417A0001F9E43525FAC003C002C0011239C4FFAF
:10418A00C0077B017A0A7951127EC2EFC4333333F6
:10419A005480FED0E04ED001D002D003123A5FAB79
:1041AA0024E5262402F9E43525FAC003C002C00139
:1041BA001239C4FEC0067B017A0A79511284D9D019
:1041CA00E04FD001D002D003123A5FAB24E5262497
:1041DA0002F9E43525FAC003C002C0011239C4FE4F
:1041EA00C0067B017A0A7951126F66D0E04FD0017E
:1041FA00D002D003123A5FAB24AA25A92690000365
:10420A00E4123A71E92404F9E43AFAC003C002C09C
:10421A00011281E7ED4FD001D002D003123A5FAB11
:10422A0024E5262405F9E43525FAC003C002C001B5
:10423A001281E7EDD001D002D003123A5FAB24E538
:10424A00262406F9E43525FAC003C002C001123952
:10425A00C4FEC0067B017A0A79511285B5D0E04FB7
:10426A00D001D002D003123A5FAB24E5262406F926
:10427A00E43525FAC003C002C0011239C4FFC007E1
:10428A007B017A0A795112852FEF33333354F8FEC2
:10429A00D0E04ED001D002D003123A5FAB24E5261B
:1042AA002407F9E43525FAC003C002C0011239C453
:1042BA00FEC0067B017A0A7951128625D0E04FD0DA
:1042CA0001D002D003123A5FAB24E5262407F9E4B1
:1042DA003525FAC003C002C0011239C4FFC0077BEA
:1042EA00017A0A7951128604EF25E0FED0E04ED019
:1042FA0001D002D003123A5FAB24E5262407F9E481
:10430A003525FAC003C002C0011239C4FFC0077BB9
:10431A00017A0A795112851FEF25E025E0FED0E0E7
:10432A004ED001D002D003123A5FAB24E52624070F
:10433A00F9E43525FAC003C002C0011239C4FFC02E
:10434A00077B017A0A7951128630EF33333354F8F6
:10435A00FED0E04ED001D002D003123A5FAB24E582
:10436A00262407F9E43525FAC003C002C001123930
:10437A00C4FFC0071284FDEFC454F0FED0E04ED053
:10438A0001D002D003123A5FAB24E5262407F9E4F0
:10439A003525FAC003C002C0011239C4FFC0071292
:1043AA0084ECEFC454F0FED0E04ED001D002D0032A
:1043BA00123A5FAB24E5262407F9E43525FAC0034F
:1043CA00C002C0011239C4FFC0077B017A0A7951C1
:1043DA00128651EFC43354E0FED0E04ED001D00231
:1043EA00D003123A5FAB24E5262407F9E43525FA0F
:1043FA00C003C002C0011239C4FFC00712850EEF04
:10440A00C4333354C0FED0E04ED001D002D00312E0
:10441A003A5F120003AB24AA25A92690000AEF12DC
:10442A003A717B017A0A795112846FAB24AA25A9C1
:10443A002690000BEF123A71120003AB24AA25A9A9
:10444A002690000CEF123A717B017A0A7951128494
:10445A0085AB24AA25A92690000DEF123A71900087
:10446A0011E4123A71900012747D123A719000139D
:10447A00E4123A71900014E4123A71900015E412B1
:10448A003A71900016E4123A71900017E4123A71E8
:10449A00900018E4123A71900019E4123A719000EF
:1044AA001AE4123A7190001BE4123A7190001CE46B
:1044BA00123A7190001DE4123A7190001EE4123A09
:1044CA0071E9241FF9E43AFAC003C002C0011239A3
:1044DA00C4FEC0067B017A0A7951128646D0E04FA3
:1044EA00D001D002D003123A5FAB24E526241FF98B
:1044FA00E43525FAC003C002C0011239C4FFC0075F
:10450A007B017A0A795112865CEF25E0FED0E04EF3
:10451A00D001D002D003123A5FAB24E526241FF95A
:10452A00E43525FAC003C002C0011239C4FFC0072E
:10453A007B017A0A7951128672EF25E025E0FED0D6
:10454A00E04ED001D002D003123A5FAB24E5262414
:10455A001FF9E43525FAC003C002C0011239C4FFAD
:10456A00C0077B017A0A795112867DEF33333354BF
:10457A00F8FED0E04ED001D002D003123A5FAB244D
:10458A00E526241FF9E43525FAC003C002C001124A
:10459A0039C4FFC0077B017A0A7951128688EFC4B1
:1045AA0054F0FED0E04ED001D002D003123A5FABF5
:1045BA0024E526241FF9E43525FAC003C002C00108
:1045CA001239C4FFC0077B017A0A7951128693EF28
:1045DA00C43354E0FED0E04ED001D002D003123AE8
:1045EA005FAB24E526241FF9E43525FAC003C0028F
:1045FA00C0011239C4FFC0077B017A0A79511285BA
:10460A00C1EFC4333354C0FED0E04ED001D002D043
:10461A0003123A5FAB24AA25A9269000207414122B
:10462A003A71E92422F9E43AFAC003C002C001123D
:10463A0039C4FFC0077B017A0A795112855BEFC43E
:10464A003333335480FED0E04ED001D002D003126F
:10465A003A5FAB24E5262422F9E43525FAC003C0E3
:10466A0002C0011239C4FFC0077B017A0A795112CC
:10467A008568EFC4333354C0FED0E04ED001D00277
:10468A00D003123A5FAB24E5262422F9E43525FA51
:10469A00C003C002C0011239C4FFC0077B017A0AF5
:1046AA007951128575EFC43354E0FED0E04ED00143
:1046BA00D002D003123A5FAB24E5262422F9E4356E
:1046CA0025FAC003C002C0011239C4FFC0077B012A
:1046DA007A0A7951128582EFC454F0FED0E04ED0A6
:1046EA0001D002D003123A5FAB24E5262422F9E472
:1046FA003525FAC003C002C0011239C4FFC0077BC6
:10470A00017A0A795112858FEF33333354F8FED088
:10471A00E04ED001D002D003123A5FAB24E5262442
:10472A0022F9E43525FAC003C002C0011239C4FFD8
:10473A00C0077B017A0A795112859CEF25E025E0B2
:10474A00FED0E04ED001D002D003123A5F900A4B5D
:10475A00E0AB24AA25A926900023123A71900A4CAC
:10476A00E0900024123A71900A4FA3E090002512BB
:10477A003A71900A1FA3E0900028123A71900A2B0E
:10478A00A3E0900029123A71900A37A3E090002A18
:10479A00123A71900A3BE090002B123A71900A3C4F
:1047AA00E090002C123A71900A3DE090002D123AE6
:1047BA0071900A3EE090002E123A7190002F740711
:1047CA00123A71E92437F9E43AFAC003C002C00187
:1047DA001239C4FEC0067B017A0A7951128667D063
:1047EA00E04FD001D002D003123A5F900A16E0FFE0
:1047FA0004F0AB24AA25A926E52824FEFDE52734E2
:10480A00FF8D82F583EF123A71AD28AC27027F3F04
:10819200565447002448532D4D4F54494F4E002CFE
:1081A20000245A42534A2C0055AAFE7C55AA0000CC
:1081B200111155AA0000000055AA494F584755AA67
:1081C200494F4451584743474451434755AA494FA1
:1081D200FFFF55AA494FFFFE55AA494FFFFC0A006F
:0581E20055530A005393
:0A77EB004107D400010F0001100057
:046554008F228D23E2
:10655800900D71E4F0A3F0A3F0A304F0A37408F085
:10656800A37416F0E4A3F0A3F078797C0D7D017B89
:10657800FF7A8179E0FE7F0212399EE4900D7BF06C
:10658800E5107044751001FE7F41FD7B017A0779A3
:10659800D5123E5E7B017A0779D57D417C00123E9B
:1065A800C07E007F847D007B017A077950123E5EB1
:1065B800752701752807752950752A00752B417BA9
:1065C800017A0779D5127E437E027F007D007B0128
:1065D8007A087916123E5E7B017A0D79791284B0B9
:1065E8008F40753B02753C00753D01753E0D753F4A
:1065F800797B017A087916AF22126363900D77EEE2
:10660800F0A3EFF0D39400EE940050030266FAE48E
:10661800F50F7538FF753981753A92900D740266D9
:10662800C0900D71E0FBA3E0FAA3E04A4B700302AF
:1066380066D9900D71A3A3E024FDF9EA34FFFA901E
:106648000D71EBF0A3EAF0A3E9F0A3A3E0FAA3E04D
:10665800AE02FF900D71A3E0FAA3E0C39FFFEA9E8C
:106668008F39A3E0FBA3E0FAA3E0F9AF2312838BF1
:10667800E4F5107BFF7A8179A3753906AF2312837D
:106688008B7B017A077950753983AF2312838B90FE
:106698000D71E0F9A3E0FAA3E0A3C9F0A3EAF0A31F
:1066A800E9F0900D72E475F006123A937538FF75AB
:1066B8003981753A92900D71E0FBA3E0FAA3E0F9F5
:1066C800127DC1900D71EBF0A3EAF0A3E9F0026628
:1066D80029900D74A3E0FAA3E0C39416FFA3A3E0E6
:1066E800C39FF539900D74E0FBA3A3E0F9AF230233
:1066F800838BE50FC3940A4021E4F5107BFF7A8170
:1067080079A3753906AF2312838B7B017A077950F9
:10671800753983AF2312838B8002050F7F647E0057
:0367280012844296
:01672B00224B
:0F853F00AD079007D4E0B401057F031265542205
:08551D008F338B348A35893687
:10552500900D7CE4F0A3F0A3F0A3F0A3F078817CC8
:105535000D7D017BFF7A8179E2FE7F0212399EE4BF
:10554500900D83F0A3F0A3F07E02FFFD7B017A08A6
:105555007916123E5E753B02753C00753D01753E40
:105565000D753F817540027B017A087916AF3312BC
:105575006363900D7FEEF0A3EFF0D39400EE9400FB
:1055850050030257FB900D7FE0FCA3E0FD753C0145
:10559500753D0D753E81753F007540027B017A08AA
:1055A50079160257EA900D7CE0FBA3E0FAA3E04AE6
:1055B5004B70030257FB900D7CA3A3E0F99000020A
:1055C5001239DDAB34AA35A936123A5F900D7CE06D
:1055D500FBA3E0FAA3E0F99000031239DDAB34AA8E
:1055E50035A936900001123A71900D7CE0FBA3E0DD
:1055F500FAA3E0F99000041239DDAB34AA35A936D7
:10560500900002123A71900D7CE0FBA3E0FAA3E052
:10561500F99000051239DDAB34AA35A9369000039F
:10562500123A71900D7CE0FBA3E0FAA3E0F990003B
:10563500061239DDAB34AA35A936900004123A7149
:10564500900D7CE0FBA3E0FAA3E0F9900007123986
:10565500DDAB34AA35A936900005123A71900001E8
:105665001239DDFE1239C4FDEDFFAC06EC12357AB8
:10567500E4FBFAF978471234D8E4FBFA79E1784487
:105685001233CF1235B3AB34AA35A936900006EEE6
:105695008FF0123B419000031239DDFE900002129B
:1056A50039DDFDEDFFAC06EC12357AE4FBFAF9784D
:1056B500471234D8E4FBFA79E178441233CF123536
:1056C500B3AB34AA35A936900008EE8FF0123B41F2
:1056D5009000051239DDFE9000041239DDFDEDFF65
:1056E500AC06EC12357AE4FBFAF978471234D8E4C3
:1056F500FBFA79E178441233CF1235B3AB34AA35CE
:10570500A93690000AEE8FF0123B41900006123A3E
